{
  "_format": "hh-sol-artifact-1",
  "contractName": "Rzhuken",
  "sourceName": "contracts/Rzhuken.sol",
  "abi": [
    {
      "inputs": [
        {
          "internalType": "uint256",
          "name": "initialSupply",
          "type": "uint256"
        }
      ],
      "stateMutability": "nonpayable",
      "type": "constructor"
    },
    {
      "anonymous": false,
      "inputs": [
        {
          "indexed": true,
          "internalType": "address",
          "name": "owner",
          "type": "address"
        },
        {
          "indexed": true,
          "internalType": "address",
          "name": "spender",
          "type": "address"
        },
        {
          "indexed": false,
          "internalType": "uint256",
          "name": "value",
          "type": "uint256"
        }
      ],
      "name": "Approval",
      "type": "event"
    },
    {
      "anonymous": false,
      "inputs": [
        {
          "indexed": false,
          "internalType": "address",
          "name": "addr",
          "type": "address"
        },
        {
          "indexed": false,
          "internalType": "string",
          "name": "name",
          "type": "string"
        }
      ],
      "name": "LogAdd",
      "type": "event"
    },
    {
      "anonymous": false,
      "inputs": [
        {
          "indexed": false,
          "internalType": "address",
          "name": "addr",
          "type": "address"
        },
        {
          "indexed": false,
          "internalType": "string",
          "name": "name",
          "type": "string"
        }
      ],
      "name": "LogRemove",
      "type": "event"
    },
    {
      "anonymous": false,
      "inputs": [
        {
          "indexed": true,
          "internalType": "address",
          "name": "previousOwner",
          "type": "address"
        },
        {
          "indexed": true,
          "internalType": "address",
          "name": "newOwner",
          "type": "address"
        }
      ],
      "name": "OwnershipTransferred",
      "type": "event"
    },
    {
      "anonymous": false,
      "inputs": [
        {
          "indexed": true,
          "internalType": "address",
          "name": "from",
          "type": "address"
        },
        {
          "indexed": true,
          "internalType": "address",
          "name": "to",
          "type": "address"
        },
        {
          "indexed": false,
          "internalType": "uint256",
          "name": "value",
          "type": "uint256"
        }
      ],
      "name": "Transfer",
      "type": "event"
    },
    {
      "inputs": [
        {
          "internalType": "address",
          "name": "_addr",
          "type": "address"
        },
        {
          "internalType": "string",
          "name": "_name",
          "type": "string"
        },
        {
          "internalType": "bool",
          "name": "_rzhu",
          "type": "bool"
        }
      ],
      "name": "addKek",
      "outputs": [],
      "stateMutability": "nonpayable",
      "type": "function"
    },
    {
      "inputs": [
        {
          "internalType": "address",
          "name": "owner",
          "type": "address"
        },
        {
          "internalType": "address",
          "name": "spender",
          "type": "address"
        }
      ],
      "name": "allowance",
      "outputs": [
        {
          "internalType": "uint256",
          "name": "",
          "type": "uint256"
        }
      ],
      "stateMutability": "view",
      "type": "function"
    },
    {
      "inputs": [
        {
          "internalType": "address",
          "name": "spender",
          "type": "address"
        },
        {
          "internalType": "uint256",
          "name": "amount",
          "type": "uint256"
        }
      ],
      "name": "approve",
      "outputs": [
        {
          "internalType": "bool",
          "name": "",
          "type": "bool"
        }
      ],
      "stateMutability": "nonpayable",
      "type": "function"
    },
    {
      "inputs": [
        {
          "internalType": "address",
          "name": "account",
          "type": "address"
        }
      ],
      "name": "balanceOf",
      "outputs": [
        {
          "internalType": "uint256",
          "name": "",
          "type": "uint256"
        }
      ],
      "stateMutability": "view",
      "type": "function"
    },
    {
      "inputs": [
        {
          "internalType": "address",
          "name": "account",
          "type": "address"
        },
        {
          "internalType": "uint256",
          "name": "amount",
          "type": "uint256"
        }
      ],
      "name": "burn",
      "outputs": [],
      "stateMutability": "nonpayable",
      "type": "function"
    },
    {
      "inputs": [],
      "name": "decimals",
      "outputs": [
        {
          "internalType": "uint8",
          "name": "",
          "type": "uint8"
        }
      ],
      "stateMutability": "view",
      "type": "function"
    },
    {
      "inputs": [
        {
          "internalType": "address",
          "name": "spender",
          "type": "address"
        },
        {
          "internalType": "uint256",
          "name": "subtractedValue",
          "type": "uint256"
        }
      ],
      "name": "decreaseAllowance",
      "outputs": [
        {
          "internalType": "bool",
          "name": "",
          "type": "bool"
        }
      ],
      "stateMutability": "nonpayable",
      "type": "function"
    },
    {
      "inputs": [
        {
          "internalType": "address",
          "name": "spender",
          "type": "address"
        },
        {
          "internalType": "uint256",
          "name": "addedValue",
          "type": "uint256"
        }
      ],
      "name": "increaseAllowance",
      "outputs": [
        {
          "internalType": "bool",
          "name": "",
          "type": "bool"
        }
      ],
      "stateMutability": "nonpayable",
      "type": "function"
    },
    {
      "inputs": [
        {
          "internalType": "address",
          "name": "account",
          "type": "address"
        },
        {
          "internalType": "uint256",
          "name": "amount",
          "type": "uint256"
        }
      ],
      "name": "mint",
      "outputs": [],
      "stateMutability": "nonpayable",
      "type": "function"
    },
    {
      "inputs": [],
      "name": "name",
      "outputs": [
        {
          "internalType": "string",
          "name": "",
          "type": "string"
        }
      ],
      "stateMutability": "view",
      "type": "function"
    },
    {
      "inputs": [],
      "name": "owner",
      "outputs": [
        {
          "internalType": "address",
          "name": "",
          "type": "address"
        }
      ],
      "stateMutability": "view",
      "type": "function"
    },
    {
      "inputs": [
        {
          "internalType": "address",
          "name": "_addr",
          "type": "address"
        }
      ],
      "name": "removeKek",
      "outputs": [],
      "stateMutability": "nonpayable",
      "type": "function"
    },
    {
      "inputs": [],
      "name": "renounceOwnership",
      "outputs": [],
      "stateMutability": "nonpayable",
      "type": "function"
    },
    {
      "inputs": [
        {
          "internalType": "address",
          "name": "",
          "type": "address"
        }
      ],
      "name": "rzhumen",
      "outputs": [
        {
          "internalType": "address",
          "name": "addr",
          "type": "address"
        },
        {
          "internalType": "string",
          "name": "name",
          "type": "string"
        },
        {
          "internalType": "bool",
          "name": "rzhu",
          "type": "bool"
        }
      ],
      "stateMutability": "view",
      "type": "function"
    },
    {
      "inputs": [],
      "name": "symbol",
      "outputs": [
        {
          "internalType": "string",
          "name": "",
          "type": "string"
        }
      ],
      "stateMutability": "view",
      "type": "function"
    },
    {
      "inputs": [],
      "name": "totalSupply",
      "outputs": [
        {
          "internalType": "uint256",
          "name": "",
          "type": "uint256"
        }
      ],
      "stateMutability": "view",
      "type": "function"
    },
    {
      "inputs": [
        {
          "internalType": "address",
          "name": "to",
          "type": "address"
        },
        {
          "internalType": "uint256",
          "name": "amount",
          "type": "uint256"
        }
      ],
      "name": "transfer",
      "outputs": [
        {
          "internalType": "bool",
          "name": "",
          "type": "bool"
        }
      ],
      "stateMutability": "nonpayable",
      "type": "function"
    },
    {
      "inputs": [
        {
          "internalType": "address",
          "name": "from",
          "type": "address"
        },
        {
          "internalType": "address",
          "name": "to",
          "type": "address"
        },
        {
          "internalType": "uint256",
          "name": "amount",
          "type": "uint256"
        }
      ],
      "name": "transferFrom",
      "outputs": [
        {
          "internalType": "bool",
          "name": "",
          "type": "bool"
        }
      ],
      "stateMutability": "nonpayable",
      "type": "function"
    },
    {
      "inputs": [
        {
          "internalType": "address",
          "name": "newOwner",
          "type": "address"
        }
      ],
      "name": "transferOwnership",
      "outputs": [],
      "stateMutability": "nonpayable",
      "type": "function"
    }
  ],
  "bytecode": "0x60806040523480156200001157600080fd5b50604051620030d1380380620030d1833981810160405281019062000037919062000386565b6040518060400160405280600a81526020017f527a687520546f6b656e000000000000000000000000000000000000000000008152506040518060400160405280600481526020017f525a485500000000000000000000000000000000000000000000000000000000815250620000c3620000b76200010260201b60201c565b6200010a60201b60201c565b8160049081620000d4919062000628565b508060059081620000e6919062000628565b505050620000fb3382620001ce60201b60201c565b506200082a565b600033905090565b60008060009054906101000a900473ffffffffffffffffffffffffffffffffffffffff169050816000806101000a81548173ffffffffffffffffffffffffffffffffffffffff021916908373ffffffffffffffffffffffffffffffffffffffff1602179055508173ffffffffffffffffffffffffffffffffffffffff168173ffffffffffffffffffffffffffffffffffffffff167f8be0079c531659141344cd1fd0a4f28419497f9722a3daafe3b4186f6b6457e060405160405180910390a35050565b600073ffffffffffffffffffffffffffffffffffffffff168273ffffffffffffffffffffffffffffffffffffffff160362000240576040517f08c379a0000000000000000000000000000000000000000000000000000000008152600401620002379062000770565b60405180910390fd5b62000254600083836200033c60201b60201c565b8060036000828254620002689190620007c1565b9250508190555080600160008473ffffffffffffffffffffffffffffffffffffffff1673ffffffffffffffffffffffffffffffffffffffff168152602001908152602001600020600082825401925050819055508173ffffffffffffffffffffffffffffffffffffffff16600073ffffffffffffffffffffffffffffffffffffffff167fddf252ad1be2c89b69c2b068fc378daa952ba7f163c4a11628f55a4df523b3ef836040516200031c91906200080d565b60405180910390a362000338600083836200034160201b60201c565b5050565b505050565b505050565b600080fd5b6000819050919050565b62000360816200034b565b81146200036c57600080fd5b50565b600081519050620003808162000355565b92915050565b6000602082840312156200039f576200039e62000346565b5b6000620003af848285016200036f565b91505092915050565b600081519050919050565b7f4e487b7100000000000000000000000000000000000000000000000000000000600052604160045260246000fd5b7f4e487b7100000000000000000000000000000000000000000000000000000000600052602260045260246000fd5b600060028204905060018216806200043a57607f821691505b60208210810362000450576200044f620003f2565b5b50919050565b60008190508160005260206000209050919050565b60006020601f8301049050919050565b600082821b905092915050565b600060088302620004ba7fffffffffffffffffffffffffffffffffffffffffffffffffffffffffffffffff826200047b565b620004c686836200047b565b95508019841693508086168417925050509392505050565b6000819050919050565b60006200050962000503620004fd846200034b565b620004de565b6200034b565b9050919050565b6000819050919050565b6200052583620004e8565b6200053d620005348262000510565b84845462000488565b825550505050565b600090565b6200055462000545565b620005618184846200051a565b505050565b5b8181101562000589576200057d6000826200054a565b60018101905062000567565b5050565b601f821115620005d857620005a28162000456565b620005ad846200046b565b81016020851015620005bd578190505b620005d5620005cc856200046b565b83018262000566565b50505b505050565b600082821c905092915050565b6000620005fd60001984600802620005dd565b1980831691505092915050565b6000620006188383620005ea565b9150826002028217905092915050565b6200063382620003b8565b67ffffffffffffffff8111156200064f576200064e620003c3565b5b6200065b825462000421565b620006688282856200058d565b600060209050601f831160018114620006a057600084156200068b578287015190505b6200069785826200060a565b86555062000707565b601f198416620006b08662000456565b60005b82811015620006da57848901518255600182019150602085019450602081019050620006b3565b86831015620006fa5784890151620006f6601f891682620005ea565b8355505b6001600288020188555050505b505050505050565b600082825260208201905092915050565b7f45524332303a206d696e7420746f20746865207a65726f206164647265737300600082015250565b600062000758601f836200070f565b9150620007658262000720565b602082019050919050565b600060208201905081810360008301526200078b8162000749565b9050919050565b7f4e487b7100000000000000000000000000000000000000000000000000000000600052601160045260246000fd5b6000620007ce826200034b565b9150620007db836200034b565b9250828201905080821115620007f657620007f562000792565b5b92915050565b62000807816200034b565b82525050565b6000602082019050620008246000830184620007fc565b92915050565b612897806200083a6000396000f3fe608060405234801561001057600080fd5b50600436106101215760003560e01c806370a08231116100ad578063a457c2d711610071578063a457c2d7146102f6578063a9059cbb14610326578063c480e32b14610356578063dd62ed3e14610388578063f2fde38b146103b857610121565b806370a0823114610264578063715018a6146102945780638da5cb5b1461029e57806395d89b41146102bc5780639dc29fac146102da57610121565b8063313ce567116100f4578063313ce567146101c257806339509351146101e057806340c10f191461021057806341b3bce41461022c5780636d2a8b181461024857610121565b806306fdde0314610126578063095ea7b31461014457806318160ddd1461017457806323b872dd14610192575b600080fd5b61012e6103d4565b60405161013b9190611887565b60405180910390f35b61015e60048036038101906101599190611951565b610466565b60405161016b91906119ac565b60405180910390f35b61017c610489565b60405161018991906119d6565b60405180910390f35b6101ac60048036038101906101a791906119f1565b610493565b6040516101b991906119ac565b60405180910390f35b6101ca6104c2565b6040516101d79190611a60565b60405180910390f35b6101fa60048036038101906101f59190611951565b6104cb565b60405161020791906119ac565b60405180910390f35b61022a60048036038101906102259190611951565b610502565b005b61024660048036038101906102419190611bdc565b610518565b005b610262600480360381019061025d9190611c4b565b6107ae565b005b61027e60048036038101906102799190611c4b565b610aa1565b60405161028b91906119d6565b60405180910390f35b61029c610aea565b005b6102a6610afe565b6040516102b39190611c87565b60405180910390f35b6102c4610b27565b6040516102d19190611887565b60405180910390f35b6102f460048036038101906102ef9190611951565b610bb9565b005b610310600480360381019061030b9190611951565b610bcf565b60405161031d91906119ac565b60405180910390f35b610340600480360381019061033b9190611951565b610c46565b60405161034d91906119ac565b60405180910390f35b610370600480360381019061036b9190611c4b565b610c69565b60405161037f93929190611ca2565b60405180910390f35b6103a2600480360381019061039d9190611ce0565b610d48565b6040516103af91906119d6565b60405180910390f35b6103d260048036038101906103cd9190611c4b565b610dcf565b005b6060600480546103e390611d4f565b80601f016020809104026020016040519081016040528092919081815260200182805461040f90611d4f565b801561045c5780601f106104315761010080835404028352916020019161045c565b820191906000526020600020905b81548152906001019060200180831161043f57829003601f168201915b5050505050905090565b600080610471610e52565b905061047e818585610e5a565b600191505092915050565b6000600354905090565b60008061049e610e52565b90506104ab858285611023565b6104b68585856110af565b60019150509392505050565b60006012905090565b6000806104d6610e52565b90506104f78185856104e88589610d48565b6104f29190611daf565b610e5a565b600191505092915050565b61050a611328565b61051482826113a6565b5050565b60008290506000815103610561576040517f08c379a000000000000000000000000000000000000000000000000000000000815260040161055890611e2f565b60405180910390fd5b600073ffffffffffffffffffffffffffffffffffffffff168473ffffffffffffffffffffffffffffffffffffffff160361059a57600080fd5b600073ffffffffffffffffffffffffffffffffffffffff16600660008673ffffffffffffffffffffffffffffffffffffffff1673ffffffffffffffffffffffffffffffffffffffff16815260200190815260200160002060000160009054906101000a900473ffffffffffffffffffffffffffffffffffffffff1673ffffffffffffffffffffffffffffffffffffffff161461066b576040517f08c379a000000000000000000000000000000000000000000000000000000000815260040161066290611ec1565b60405180910390fd5b600060405180606001604052808673ffffffffffffffffffffffffffffffffffffffff16815260200185815260200184151581525090508060066000836000015173ffffffffffffffffffffffffffffffffffffffff1673ffffffffffffffffffffffffffffffffffffffff16815260200190815260200160002060008201518160000160006101000a81548173ffffffffffffffffffffffffffffffffffffffff021916908373ffffffffffffffffffffffffffffffffffffffff1602179055506020820151816001019081610742919061208d565b5060408201518160020160006101000a81548160ff0219169083151502179055509050507f737896253d503d8fdfa3d80fb1c2d04008371dd6376b8c6bd0a2259ed158ee178160000151826020015160405161079f92919061215f565b60405180910390a15050505050565b8073ffffffffffffffffffffffffffffffffffffffff16600660008373ffffffffffffffffffffffffffffffffffffffff1673ffffffffffffffffffffffffffffffffffffffff16815260200190815260200160002060000160009054906101000a900473ffffffffffffffffffffffffffffffffffffffff1673ffffffffffffffffffffffffffffffffffffffff161461087e576040517f08c379a0000000000000000000000000000000000000000000000000000000008152600401610875906121db565b60405180910390fd5b6000600660008373ffffffffffffffffffffffffffffffffffffffff1673ffffffffffffffffffffffffffffffffffffffff1681526020019081526020016000206040518060600160405290816000820160009054906101000a900473ffffffffffffffffffffffffffffffffffffffff1673ffffffffffffffffffffffffffffffffffffffff1673ffffffffffffffffffffffffffffffffffffffff16815260200160018201805461093090611d4f565b80601f016020809104026020016040519081016040528092919081815260200182805461095c90611d4f565b80156109a95780601f1061097e576101008083540402835291602001916109a9565b820191906000526020600020905b81548152906001019060200180831161098c57829003601f168201915b505050505081526020016002820160009054906101000a900460ff1615151515815250509050600660008373ffffffffffffffffffffffffffffffffffffffff1673ffffffffffffffffffffffffffffffffffffffff168152602001908152602001600020600080820160006101000a81549073ffffffffffffffffffffffffffffffffffffffff0219169055600182016000610a46919061179a565b6002820160006101000a81549060ff021916905550507f451e9156bc37c4e4ab6af0be6eac4f240a04cf210825d86050c120f94bcf92ac81600001518260200151604051610a9592919061215f565b60405180910390a15050565b6000600160008373ffffffffffffffffffffffffffffffffffffffff1673ffffffffffffffffffffffffffffffffffffffff168152602001908152602001600020549050919050565b610af2611328565b610afc60006114fd565b565b60008060009054906101000a900473ffffffffffffffffffffffffffffffffffffffff16905090565b606060058054610b3690611d4f565b80601f0160208091040260200160405190810160405280929190818152602001828054610b6290611d4f565b8015610baf5780601f10610b8457610100808354040283529160200191610baf565b820191906000526020600020905b815481529060010190602001808311610b9257829003601f168201915b5050505050905090565b610bc1611328565b610bcb82826115c1565b5050565b600080610bda610e52565b90506000610be88286610d48565b905083811015610c2d576040517f08c379a0000000000000000000000000000000000000000000000000000000008152600401610c249061226d565b60405180910390fd5b610c3a8286868403610e5a565b60019250505092915050565b600080610c51610e52565b9050610c5e8185856110af565b600191505092915050565b60066020528060005260406000206000915090508060000160009054906101000a900473ffffffffffffffffffffffffffffffffffffffff1690806001018054610cb290611d4f565b80601f0160208091040260200160405190810160405280929190818152602001828054610cde90611d4f565b8015610d2b5780601f10610d0057610100808354040283529160200191610d2b565b820191906000526020600020905b815481529060010190602001808311610d0e57829003601f168201915b5050505050908060020160009054906101000a900460ff16905083565b6000600260008473ffffffffffffffffffffffffffffffffffffffff1673ffffffffffffffffffffffffffffffffffffffff16815260200190815260200160002060008373ffffffffffffffffffffffffffffffffffffffff1673ffffffffffffffffffffffffffffffffffffffff16815260200190815260200160002054905092915050565b610dd7611328565b600073ffffffffffffffffffffffffffffffffffffffff168173ffffffffffffffffffffffffffffffffffffffff1603610e46576040517f08c379a0000000000000000000000000000000000000000000000000000000008152600401610e3d906122ff565b60405180910390fd5b610e4f816114fd565b50565b600033905090565b600073ffffffffffffffffffffffffffffffffffffffff168373ffffffffffffffffffffffffffffffffffffffff1603610ec9576040517f08c379a0000000000000000000000000000000000000000000000000000000008152600401610ec090612391565b60405180910390fd5b600073ffffffffffffffffffffffffffffffffffffffff168273ffffffffffffffffffffffffffffffffffffffff1603610f38576040517f08c379a0000000000000000000000000000000000000000000000000000000008152600401610f2f90612423565b60405180910390fd5b80600260008573ffffffffffffffffffffffffffffffffffffffff1673ffffffffffffffffffffffffffffffffffffffff16815260200190815260200160002060008473ffffffffffffffffffffffffffffffffffffffff1673ffffffffffffffffffffffffffffffffffffffff168152602001908152602001600020819055508173ffffffffffffffffffffffffffffffffffffffff168373ffffffffffffffffffffffffffffffffffffffff167f8c5be1e5ebec7d5bd14f71427d1e84f3dd0314c0f7b2291e5b200ac8c7c3b9258360405161101691906119d6565b60405180910390a3505050565b600061102f8484610d48565b90507fffffffffffffffffffffffffffffffffffffffffffffffffffffffffffffffff81146110a9578181101561109b576040517f08c379a00000000000000000000000000000000000000000000000000000000081526004016110929061248f565b60405180910390fd5b6110a88484848403610e5a565b5b50505050565b600073ffffffffffffffffffffffffffffffffffffffff168373ffffffffffffffffffffffffffffffffffffffff160361111e576040517f08c379a000000000000000000000000000000000000000000000000000000000815260040161111590612521565b60405180910390fd5b600073ffffffffffffffffffffffffffffffffffffffff168273ffffffffffffffffffffffffffffffffffffffff160361118d576040517f08c379a0000000000000000000000000000000000000000000000000000000008152600401611184906125b3565b60405180910390fd5b611198838383611790565b6000600160008573ffffffffffffffffffffffffffffffffffffffff1673ffffffffffffffffffffffffffffffffffffffff1681526020019081526020016000205490508181101561121f576040517f08c379a000000000000000000000000000000000000000000000000000000000815260040161121690612645565b60405180910390fd5b818103600160008673ffffffffffffffffffffffffffffffffffffffff1673ffffffffffffffffffffffffffffffffffffffff1681526020019081526020016000208190555081600160008573ffffffffffffffffffffffffffffffffffffffff1673ffffffffffffffffffffffffffffffffffffffff168152602001908152602001600020600082825401925050819055508273ffffffffffffffffffffffffffffffffffffffff168473ffffffffffffffffffffffffffffffffffffffff167fddf252ad1be2c89b69c2b068fc378daa952ba7f163c4a11628f55a4df523b3ef8460405161130f91906119d6565b60405180910390a3611322848484611795565b50505050565b611330610e52565b73ffffffffffffffffffffffffffffffffffffffff1661134e610afe565b73ffffffffffffffffffffffffffffffffffffffff16146113a4576040517f08c379a000000000000000000000000000000000000000000000000000000000815260040161139b906126b1565b60405180910390fd5b565b600073ffffffffffffffffffffffffffffffffffffffff168273ffffffffffffffffffffffffffffffffffffffff1603611415576040517f08c379a000000000000000000000000000000000000000000000000000000000815260040161140c9061271d565b60405180910390fd5b61142160008383611790565b80600360008282546114339190611daf565b9250508190555080600160008473ffffffffffffffffffffffffffffffffffffffff1673ffffffffffffffffffffffffffffffffffffffff168152602001908152602001600020600082825401925050819055508173ffffffffffffffffffffffffffffffffffffffff16600073ffffffffffffffffffffffffffffffffffffffff167fddf252ad1be2c89b69c2b068fc378daa952ba7f163c4a11628f55a4df523b3ef836040516114e591906119d6565b60405180910390a36114f960008383611795565b5050565b60008060009054906101000a900473ffffffffffffffffffffffffffffffffffffffff169050816000806101000a81548173ffffffffffffffffffffffffffffffffffffffff021916908373ffffffffffffffffffffffffffffffffffffffff1602179055508173ffffffffffffffffffffffffffffffffffffffff168173ffffffffffffffffffffffffffffffffffffffff167f8be0079c531659141344cd1fd0a4f28419497f9722a3daafe3b4186f6b6457e060405160405180910390a35050565b600073ffffffffffffffffffffffffffffffffffffffff168273ffffffffffffffffffffffffffffffffffffffff1603611630576040517f08c379a0000000000000000000000000000000000000000000000000000000008152600401611627906127af565b60405180910390fd5b61163c82600083611790565b6000600160008473ffffffffffffffffffffffffffffffffffffffff1673ffffffffffffffffffffffffffffffffffffffff168152602001908152602001600020549050818110156116c3576040517f08c379a00000000000000000000000000000000000000000000000000000000081526004016116ba90612841565b60405180910390fd5b818103600160008573ffffffffffffffffffffffffffffffffffffffff1673ffffffffffffffffffffffffffffffffffffffff1681526020019081526020016000208190555081600360008282540392505081905550600073ffffffffffffffffffffffffffffffffffffffff168373ffffffffffffffffffffffffffffffffffffffff167fddf252ad1be2c89b69c2b068fc378daa952ba7f163c4a11628f55a4df523b3ef8460405161177791906119d6565b60405180910390a361178b83600084611795565b505050565b505050565b505050565b5080546117a690611d4f565b6000825580601f106117b857506117d7565b601f0160209004906000526020600020908101906117d691906117da565b5b50565b5b808211156117f35760008160009055506001016117db565b5090565b600081519050919050565b600082825260208201905092915050565b60005b83811015611831578082015181840152602081019050611816565b60008484015250505050565b6000601f19601f8301169050919050565b6000611859826117f7565b6118638185611802565b9350611873818560208601611813565b61187c8161183d565b840191505092915050565b600060208201905081810360008301526118a1818461184e565b905092915050565b6000604051905090565b600080fd5b600080fd5b600073ffffffffffffffffffffffffffffffffffffffff82169050919050565b60006118e8826118bd565b9050919050565b6118f8816118dd565b811461190357600080fd5b50565b600081359050611915816118ef565b92915050565b6000819050919050565b61192e8161191b565b811461193957600080fd5b50565b60008135905061194b81611925565b92915050565b60008060408385031215611968576119676118b3565b5b600061197685828601611906565b92505060206119878582860161193c565b9150509250929050565b60008115159050919050565b6119a681611991565b82525050565b60006020820190506119c1600083018461199d565b92915050565b6119d08161191b565b82525050565b60006020820190506119eb60008301846119c7565b92915050565b600080600060608486031215611a0a57611a096118b3565b5b6000611a1886828701611906565b9350506020611a2986828701611906565b9250506040611a3a8682870161193c565b9150509250925092565b600060ff82169050919050565b611a5a81611a44565b82525050565b6000602082019050611a756000830184611a51565b92915050565b600080fd5b600080fd5b7f4e487b7100000000000000000000000000000000000000000000000000000000600052604160045260246000fd5b611abd8261183d565b810181811067ffffffffffffffff82111715611adc57611adb611a85565b5b80604052505050565b6000611aef6118a9565b9050611afb8282611ab4565b919050565b600067ffffffffffffffff821115611b1b57611b1a611a85565b5b611b248261183d565b9050602081019050919050565b82818337600083830152505050565b6000611b53611b4e84611b00565b611ae5565b905082815260208101848484011115611b6f57611b6e611a80565b5b611b7a848285611b31565b509392505050565b600082601f830112611b9757611b96611a7b565b5b8135611ba7848260208601611b40565b91505092915050565b611bb981611991565b8114611bc457600080fd5b50565b600081359050611bd681611bb0565b92915050565b600080600060608486031215611bf557611bf46118b3565b5b6000611c0386828701611906565b935050602084013567ffffffffffffffff811115611c2457611c236118b8565b5b611c3086828701611b82565b9250506040611c4186828701611bc7565b9150509250925092565b600060208284031215611c6157611c606118b3565b5b6000611c6f84828501611906565b91505092915050565b611c81816118dd565b82525050565b6000602082019050611c9c6000830184611c78565b92915050565b6000606082019050611cb76000830186611c78565b8181036020830152611cc9818561184e565b9050611cd8604083018461199d565b949350505050565b60008060408385031215611cf757611cf66118b3565b5b6000611d0585828601611906565b9250506020611d1685828601611906565b9150509250929050565b7f4e487b7100000000000000000000000000000000000000000000000000000000600052602260045260246000fd5b60006002820490506001821680611d6757607f821691505b602082108103611d7a57611d79611d20565b5b50919050565b7f4e487b7100000000000000000000000000000000000000000000000000000000600052601160045260246000fd5b6000611dba8261191b565b9150611dc58361191b565b9250828201905080821115611ddd57611ddc611d80565b5b92915050565b7f4e616d652073686f756c64206e6f7420626520656d7074790000000000000000600082015250565b6000611e19601883611802565b9150611e2482611de3565b602082019050919050565b60006020820190508181036000830152611e4881611e0c565b9050919050565b7f4120727a68756d616e20776974682074686520676976656e206164647265737360008201527f20697320616c72656164792070726573656e7400000000000000000000000000602082015250565b6000611eab603383611802565b9150611eb682611e4f565b604082019050919050565b60006020820190508181036000830152611eda81611e9e565b9050919050565b60008190508160005260206000209050919050565b60006020601f8301049050919050565b600082821b905092915050565b600060088302611f437fffffffffffffffffffffffffffffffffffffffffffffffffffffffffffffffff82611f06565b611f4d8683611f06565b95508019841693508086168417925050509392505050565b6000819050919050565b6000611f8a611f85611f808461191b565b611f65565b61191b565b9050919050565b6000819050919050565b611fa483611f6f565b611fb8611fb082611f91565b848454611f13565b825550505050565b600090565b611fcd611fc0565b611fd8818484611f9b565b505050565b5b81811015611ffc57611ff1600082611fc5565b600181019050611fde565b5050565b601f8211156120415761201281611ee1565b61201b84611ef6565b8101602085101561202a578190505b61203e61203685611ef6565b830182611fdd565b50505b505050565b600082821c905092915050565b600061206460001984600802612046565b1980831691505092915050565b600061207d8383612053565b9150826002028217905092915050565b612096826117f7565b67ffffffffffffffff8111156120af576120ae611a85565b5b6120b98254611d4f565b6120c4828285612000565b600060209050601f8311600181146120f757600084156120e5578287015190505b6120ef8582612071565b865550612157565b601f19841661210586611ee1565b60005b8281101561212d57848901518255600182019150602085019450602081019050612108565b8683101561214a5784890151612146601f891682612053565b8355505b6001600288020188555050505b505050505050565b60006040820190506121746000830185611c78565b8181036020830152612186818461184e565b90509392505050565b7f527a68756d616e206e6f7420666f756e64000000000000000000000000000000600082015250565b60006121c5601183611802565b91506121d08261218f565b602082019050919050565b600060208201905081810360008301526121f4816121b8565b9050919050565b7f45524332303a2064656372656173656420616c6c6f77616e63652062656c6f7760008201527f207a65726f000000000000000000000000000000000000000000000000000000602082015250565b6000612257602583611802565b9150612262826121fb565b604082019050919050565b600060208201905081810360008301526122868161224a565b9050919050565b7f4f776e61626c653a206e6577206f776e657220697320746865207a65726f206160008201527f6464726573730000000000000000000000000000000000000000000000000000602082015250565b60006122e9602683611802565b91506122f48261228d565b604082019050919050565b60006020820190508181036000830152612318816122dc565b9050919050565b7f45524332303a20617070726f76652066726f6d20746865207a65726f2061646460008201527f7265737300000000000000000000000000000000000000000000000000000000602082015250565b600061237b602483611802565b91506123868261231f565b604082019050919050565b600060208201905081810360008301526123aa8161236e565b9050919050565b7f45524332303a20617070726f766520746f20746865207a65726f20616464726560008201527f7373000000000000000000000000000000000000000000000000000000000000602082015250565b600061240d602283611802565b9150612418826123b1565b604082019050919050565b6000602082019050818103600083015261243c81612400565b9050919050565b7f45524332303a20696e73756666696369656e7420616c6c6f77616e6365000000600082015250565b6000612479601d83611802565b915061248482612443565b602082019050919050565b600060208201905081810360008301526124a88161246c565b9050919050565b7f45524332303a207472616e736665722066726f6d20746865207a65726f20616460008201527f6472657373000000000000000000000000000000000000000000000000000000602082015250565b600061250b602583611802565b9150612516826124af565b604082019050919050565b6000602082019050818103600083015261253a816124fe565b9050919050565b7f45524332303a207472616e7366657220746f20746865207a65726f206164647260008201527f6573730000000000000000000000000000000000000000000000000000000000602082015250565b600061259d602383611802565b91506125a882612541565b604082019050919050565b600060208201905081810360008301526125cc81612590565b9050919050565b7f45524332303a207472616e7366657220616d6f756e742065786365656473206260008201527f616c616e63650000000000000000000000000000000000000000000000000000602082015250565b600061262f602683611802565b915061263a826125d3565b604082019050919050565b6000602082019050818103600083015261265e81612622565b9050919050565b7f4f776e61626c653a2063616c6c6572206973206e6f7420746865206f776e6572600082015250565b600061269b602083611802565b91506126a682612665565b602082019050919050565b600060208201905081810360008301526126ca8161268e565b9050919050565b7f45524332303a206d696e7420746f20746865207a65726f206164647265737300600082015250565b6000612707601f83611802565b9150612712826126d1565b602082019050919050565b60006020820190508181036000830152612736816126fa565b9050919050565b7f45524332303a206275726e2066726f6d20746865207a65726f2061646472657360008201527f7300000000000000000000000000000000000000000000000000000000000000602082015250565b6000612799602183611802565b91506127a48261273d565b604082019050919050565b600060208201905081810360008301526127c88161278c565b9050919050565b7f45524332303a206275726e20616d6f756e7420657863656564732062616c616e60008201527f6365000000000000000000000000000000000000000000000000000000000000602082015250565b600061282b602283611802565b9150612836826127cf565b604082019050919050565b6000602082019050818103600083015261285a8161281e565b905091905056fea26469706673582212205c6876e471ccd8639144ce44c74ada4eb9e232d0d2c8442f0074f218c789349264736f6c63430008110033",
  "linkReferences": {},
  "deployedLinkReferences": {}
}