{
  "_format": "hh-sol-artifact-1",
  "contractName": "Token",
  "sourceName": "contracts/Token.sol",
  "abi": [
    {
      "inputs": [
        {
          "internalType": "uint256",
          "name": "_totalSupply",
          "type": "uint256"
        }
      ],
      "stateMutability": "nonpayable",
      "type": "constructor"
    },
    {
      "inputs": [
        {
          "internalType": "address",
          "name": "_address",
          "type": "address"
        }
      ],
      "name": "balanceOf",
      "outputs": [
        {
          "internalType": "uint256",
          "name": "result",
          "type": "uint256"
        }
      ],
      "stateMutability": "view",
      "type": "function"
    },
    {
      "inputs": [],
      "name": "getTotalSupply",
      "outputs": [
        {
          "internalType": "uint256",
          "name": "_totalSupply",
          "type": "uint256"
        }
      ],
      "stateMutability": "view",
      "type": "function"
    },
    {
      "inputs": [],
      "name": "name",
      "outputs": [
        {
          "internalType": "string",
          "name": "",
          "type": "string"
        }
      ],
      "stateMutability": "view",
      "type": "function"
    },
    {
      "inputs": [
        {
          "internalType": "uint256",
          "name": "_amount",
          "type": "uint256"
        },
        {
          "internalType": "address",
          "name": "_to",
          "type": "address"
        }
      ],
      "name": "transfer",
      "outputs": [],
      "stateMutability": "nonpayable",
      "type": "function"
    }
  ],
  "bytecode": "0x608060405234801561001057600080fd5b5060405161078438038061078483398181016040528101906100329190610133565b336000806101000a81548173ffffffffffffffffffffffffffffffffffffffff021916908373ffffffffffffffffffffffffffffffffffffffff16021790555080600181905550600154600260008060009054906101000a900473ffffffffffffffffffffffffffffffffffffffff1673ffffffffffffffffffffffffffffffffffffffff1673ffffffffffffffffffffffffffffffffffffffff16815260200190815260200160002060008282546100eb919061018f565b92505081905550506101c3565b600080fd5b6000819050919050565b610110816100fd565b811461011b57600080fd5b50565b60008151905061012d81610107565b92915050565b600060208284031215610149576101486100f8565b5b60006101578482850161011e565b91505092915050565b7f4e487b7100000000000000000000000000000000000000000000000000000000600052601160045260246000fd5b600061019a826100fd565b91506101a5836100fd565b92508282019050808211156101bd576101bc610160565b5b92915050565b6105b2806101d26000396000f3fe608060405234801561001057600080fd5b506004361061004c5760003560e01c806306fdde031461005157806370a082311461006f578063b7760c8f1461009f578063c4e41b22146100bb575b600080fd5b6100596100d9565b6040516100669190610327565b60405180910390f35b610089600480360381019061008491906103ac565b610112565b60405161009691906103f2565b60405180910390f35b6100b960048036038101906100b49190610439565b61015b565b005b6100c361028d565b6040516100d091906103f2565b60405180910390f35b6040518060400160405280600781526020017f4d79546f6b656e0000000000000000000000000000000000000000000000000081525081565b6000600260008373ffffffffffffffffffffffffffffffffffffffff1673ffffffffffffffffffffffffffffffffffffffff168152602001908152602001600020549050919050565b81600260003373ffffffffffffffffffffffffffffffffffffffff1673ffffffffffffffffffffffffffffffffffffffff1681526020019081526020016000205410156101dd576040517f08c379a00000000000000000000000000000000000000000000000000000000081526004016101d4906104c5565b60405180910390fd5b81600260003373ffffffffffffffffffffffffffffffffffffffff1673ffffffffffffffffffffffffffffffffffffffff168152602001908152602001600020600082825461022c9190610514565b9250508190555081600260008373ffffffffffffffffffffffffffffffffffffffff1673ffffffffffffffffffffffffffffffffffffffff16815260200190815260200160002060008282546102829190610548565b925050819055505050565b6000600154905090565b600081519050919050565b600082825260208201905092915050565b60005b838110156102d15780820151818401526020810190506102b6565b60008484015250505050565b6000601f19601f8301169050919050565b60006102f982610297565b61030381856102a2565b93506103138185602086016102b3565b61031c816102dd565b840191505092915050565b6000602082019050818103600083015261034181846102ee565b905092915050565b600080fd5b600073ffffffffffffffffffffffffffffffffffffffff82169050919050565b60006103798261034e565b9050919050565b6103898161036e565b811461039457600080fd5b50565b6000813590506103a681610380565b92915050565b6000602082840312156103c2576103c1610349565b5b60006103d084828501610397565b91505092915050565b6000819050919050565b6103ec816103d9565b82525050565b600060208201905061040760008301846103e3565b92915050565b610416816103d9565b811461042157600080fd5b50565b6000813590506104338161040d565b92915050565b600080604083850312156104505761044f610349565b5b600061045e85828601610424565b925050602061046f85828601610397565b9150509250929050565b7f4e6f7420656e6f7567682066756e647300000000000000000000000000000000600082015250565b60006104af6010836102a2565b91506104ba82610479565b602082019050919050565b600060208201905081810360008301526104de816104a2565b9050919050565b7f4e487b7100000000000000000000000000000000000000000000000000000000600052601160045260246000fd5b600061051f826103d9565b915061052a836103d9565b9250828203905081811115610542576105416104e5565b5b92915050565b6000610553826103d9565b915061055e836103d9565b9250828201905080821115610576576105756104e5565b5b9291505056fea26469706673582212204ce62d6e0da2b7b814f658add74dfe10d68d2d1d98dae5a64a891c9b8ecd511d64736f6c63430008110033",
  "linkReferences": {},
  "deployedLinkReferences": {}
}